{
  "_format": "hh-sol-artifact-1",
  "contractName": "MPContract",
  "sourceName": "contracts/MP.sol",
  "abi": [
    {
      "inputs": [],
      "stateMutability": "nonpayable",
      "type": "constructor"
    },
    {
      "anonymous": false,
      "inputs": [
        {
          "indexed": false,
          "internalType": "address",
          "name": "owner",
          "type": "address"
        }
      ],
      "name": "NewFundEvent",
      "type": "event"
    },
    {
      "inputs": [],
      "name": "allItems",
      "outputs": [
        {
          "components": [
            {
              "internalType": "string",
              "name": "id",
              "type": "string"
            },
            {
              "internalType": "uint256",
              "name": "value",
              "type": "uint256"
            },
            {
              "internalType": "string",
              "name": "title",
              "type": "string"
            },
            {
              "internalType": "string",
              "name": "info",
              "type": "string"
            },
            {
              "internalType": "string",
              "name": "url",
              "type": "string"
            },
            {
              "internalType": "address",
              "name": "owner",
              "type": "address"
            },
            {
              "internalType": "bool",
              "name": "sold",
              "type": "bool"
            }
          ],
          "internalType": "struct MPContract.Item[]",
          "name": "",
          "type": "tuple[]"
        }
      ],
      "stateMutability": "view",
      "type": "function"
    },
    {
      "inputs": [],
      "name": "allItemsByOwner",
      "outputs": [
        {
          "components": [
            {
              "internalType": "string",
              "name": "id",
              "type": "string"
            },
            {
              "internalType": "uint256",
              "name": "value",
              "type": "uint256"
            },
            {
              "internalType": "string",
              "name": "title",
              "type": "string"
            },
            {
              "internalType": "string",
              "name": "info",
              "type": "string"
            },
            {
              "internalType": "string",
              "name": "url",
              "type": "string"
            },
            {
              "internalType": "address",
              "name": "owner",
              "type": "address"
            },
            {
              "internalType": "bool",
              "name": "sold",
              "type": "bool"
            }
          ],
          "internalType": "struct MPContract.Item[]",
          "name": "",
          "type": "tuple[]"
        }
      ],
      "stateMutability": "nonpayable",
      "type": "function"
    },
    {
      "inputs": [
        {
          "internalType": "uint256",
          "name": "_index",
          "type": "uint256"
        }
      ],
      "name": "buyItem",
      "outputs": [],
      "stateMutability": "payable",
      "type": "function"
    },
    {
      "inputs": [
        {
          "internalType": "uint256",
          "name": "",
          "type": "uint256"
        }
      ],
      "name": "items",
      "outputs": [
        {
          "internalType": "string",
          "name": "id",
          "type": "string"
        },
        {
          "internalType": "uint256",
          "name": "value",
          "type": "uint256"
        },
        {
          "internalType": "string",
          "name": "title",
          "type": "string"
        },
        {
          "internalType": "string",
          "name": "info",
          "type": "string"
        },
        {
          "internalType": "string",
          "name": "url",
          "type": "string"
        },
        {
          "internalType": "address",
          "name": "owner",
          "type": "address"
        },
        {
          "internalType": "bool",
          "name": "sold",
          "type": "bool"
        }
      ],
      "stateMutability": "view",
      "type": "function"
    },
    {
      "inputs": [
        {
          "internalType": "uint256",
          "name": "",
          "type": "uint256"
        }
      ],
      "name": "itemsOwned",
      "outputs": [
        {
          "internalType": "string",
          "name": "id",
          "type": "string"
        },
        {
          "internalType": "uint256",
          "name": "value",
          "type": "uint256"
        },
        {
          "internalType": "string",
          "name": "title",
          "type": "string"
        },
        {
          "internalType": "string",
          "name": "info",
          "type": "string"
        },
        {
          "internalType": "string",
          "name": "url",
          "type": "string"
        },
        {
          "internalType": "address",
          "name": "owner",
          "type": "address"
        },
        {
          "internalType": "bool",
          "name": "sold",
          "type": "bool"
        }
      ],
      "stateMutability": "view",
      "type": "function"
    },
    {
      "inputs": [
        {
          "internalType": "string",
          "name": "_id",
          "type": "string"
        },
        {
          "internalType": "uint256",
          "name": "_value",
          "type": "uint256"
        },
        {
          "internalType": "string",
          "name": "_title",
          "type": "string"
        },
        {
          "internalType": "string",
          "name": "_url",
          "type": "string"
        },
        {
          "internalType": "string",
          "name": "_info",
          "type": "string"
        }
      ],
      "name": "newItem",
      "outputs": [],
      "stateMutability": "nonpayable",
      "type": "function"
    }
  ],
  "bytecode": "0x608060405234801561001057600080fd5b50336000806101000a81548173ffffffffffffffffffffffffffffffffffffffff021916908373ffffffffffffffffffffffffffffffffffffffff1602179055506119f2806100606000396000f3fe6080604052600436106100555760003560e01c80634a880aa51461005a578063648446ff146100835780637d34491d146100ae578063bfb231d2146100d9578063e7fb74c71461011c578063ef840fc614610138575b600080fd5b34801561006657600080fd5b50610081600480360381019061007c919061136d565b61017b565b005b34801561008f57600080fd5b50610098610359565b6040516100a5919061168e565b60405180910390f35b3480156100ba57600080fd5b506100c361067b565b6040516100d0919061168e565b60405180910390f35b3480156100e557600080fd5b5061010060048036038101906100fb9190611444565b610c15565b60405161011397969594939291906116b0565b60405180910390f35b61013660048036038101906101319190611444565b610eb4565b005b34801561014457600080fd5b5061015f600480360381019061015a9190611444565b610f21565b60405161017297969594939291906116b0565b60405180910390f35b600060016040518060e0016040528088815260200187815260200186815260200184815260200185815260200160008054906101000a900473ffffffffffffffffffffffffffffffffffffffff1673ffffffffffffffffffffffffffffffffffffffff1681526020018315158152509080600181540180825580915050600190039060005260206000209060060201600090919091909150600082015181600001908051906020019061022f9291906111c0565b506020820151816001015560408201518160020190805190602001906102569291906111c0565b5060608201518160030190805190602001906102739291906111c0565b5060808201518160040190805190602001906102909291906111c0565b5060a08201518160050160006101000a81548173ffffffffffffffffffffffffffffffffffffffff021916908373ffffffffffffffffffffffffffffffffffffffff16021790555060c08201518160050160146101000a81548160ff02191690831515021790555050507f742d3ccd1bb11dc0dd2784cb064259961c3e943e3394fc0b2a0b4503a143f9ee60008054906101000a900473ffffffffffffffffffffffffffffffffffffffff166040516103499190611673565b60405180910390a1505050505050565b60606001805480602002602001604051908101604052809291908181526020016000905b8282101561067257838290600052602060002090600602016040518060e00160405290816000820180546103b09061188c565b80601f01602080910402602001604051908101604052809291908181526020018280546103dc9061188c565b80156104295780601f106103fe57610100808354040283529160200191610429565b820191906000526020600020905b81548152906001019060200180831161040c57829003601f168201915b505050505081526020016001820154815260200160028201805461044c9061188c565b80601f01602080910402602001604051908101604052809291908181526020018280546104789061188c565b80156104c55780601f1061049a576101008083540402835291602001916104c5565b820191906000526020600020905b8154815290600101906020018083116104a857829003601f168201915b505050505081526020016003820180546104de9061188c565b80601f016020809104026020016040519081016040528092919081815260200182805461050a9061188c565b80156105575780601f1061052c57610100808354040283529160200191610557565b820191906000526020600020905b81548152906001019060200180831161053a57829003601f168201915b505050505081526020016004820180546105709061188c565b80601f016020809104026020016040519081016040528092919081815260200182805461059c9061188c565b80156105e95780601f106105be576101008083540402835291602001916105e9565b820191906000526020600020905b8154815290600101906020018083116105cc57829003601f168201915b505050505081526020016005820160009054906101000a900473ffffffffffffffffffffffffffffffffffffffff1673ffffffffffffffffffffffffffffffffffffffff1673ffffffffffffffffffffffffffffffffffffffff1681526020016005820160149054906101000a900460ff1615151515815250508152602001906001019061037d565b50505050905090565b606060005b6001805490508110156108f45760008054906101000a900473ffffffffffffffffffffffffffffffffffffffff1673ffffffffffffffffffffffffffffffffffffffff16600182815481106106fe577f4e487b7100000000000000000000000000000000000000000000000000000000600052603260045260246000fd5b906000526020600020906006020160050160009054906101000a900473ffffffffffffffffffffffffffffffffffffffff1673ffffffffffffffffffffffffffffffffffffffff1614156108e15760026001600081548110610789577f4e487b7100000000000000000000000000000000000000000000000000000000600052603260045260246000fd5b9060005260206000209060060201908060018154018082558091505060019003906000526020600020906006020160009091909190915060008201816000019080546107d49061188c565b6107df929190611246565b506001820154816001015560028201816002019080546107fe9061188c565b610809929190611246565b50600382018160030190805461081e9061188c565b610829929190611246565b50600482018160040190805461083e9061188c565b610849929190611246565b506005820160009054906101000a900473ffffffffffffffffffffffffffffffffffffffff168160050160006101000a81548173ffffffffffffffffffffffffffffffffffffffff021916908373ffffffffffffffffffffffffffffffffffffffff1602179055506005820160149054906101000a900460ff168160050160146101000a81548160ff02191690831515021790555050505b80806108ec906118be565b915050610680565b506002805480602002602001604051908101604052809291908181526020016000905b82821015610c0c57838290600052602060002090600602016040518060e001604052908160008201805461094a9061188c565b80601f01602080910402602001604051908101604052809291908181526020018280546109769061188c565b80156109c35780601f10610998576101008083540402835291602001916109c3565b820191906000526020600020905b8154815290600101906020018083116109a657829003601f168201915b50505050508152602001600182015481526020016002820180546109e69061188c565b80601f0160208091040260200160405190810160405280929190818152602001828054610a129061188c565b8015610a5f5780601f10610a3457610100808354040283529160200191610a5f565b820191906000526020600020905b815481529060010190602001808311610a4257829003601f168201915b50505050508152602001600382018054610a789061188c565b80601f0160208091040260200160405190810160405280929190818152602001828054610aa49061188c565b8015610af15780601f10610ac657610100808354040283529160200191610af1565b820191906000526020600020905b815481529060010190602001808311610ad457829003601f168201915b50505050508152602001600482018054610b0a9061188c565b80601f0160208091040260200160405190810160405280929190818152602001828054610b369061188c565b8015610b835780601f10610b5857610100808354040283529160200191610b83565b820191906000526020600020905b815481529060010190602001808311610b6657829003601f168201915b505050505081526020016005820160009054906101000a900473ffffffffffffffffffffffffffffffffffffffff1673ffffffffffffffffffffffffffffffffffffffff1673ffffffffffffffffffffffffffffffffffffffff1681526020016005820160149054906101000a900460ff16151515158152505081526020019060010190610917565b50505050905090565b60018181548110610c2557600080fd5b9060005260206000209060060201600091509050806000018054610c489061188c565b80601f0160208091040260200160405190810160405280929190818152602001828054610c749061188c565b8015610cc15780601f10610c9657610100808354040283529160200191610cc1565b820191906000526020600020905b815481529060010190602001808311610ca457829003601f168201915b505050505090806001015490806002018054610cdc9061188c565b80601f0160208091040260200160405190810160405280929190818152602001828054610d089061188c565b8015610d555780601f10610d2a57610100808354040283529160200191610d55565b820191906000526020600020905b815481529060010190602001808311610d3857829003601f168201915b505050505090806003018054610d6a9061188c565b80601f0160208091040260200160405190810160405280929190818152602001828054610d969061188c565b8015610de35780601f10610db857610100808354040283529160200191610de3565b820191906000526020600020905b815481529060010190602001808311610dc657829003601f168201915b505050505090806004018054610df89061188c565b80601f0160208091040260200160405190810160405280929190818152602001828054610e249061188c565b8015610e715780601f10610e4657610100808354040283529160200191610e71565b820191906000526020600020905b815481529060010190602001808311610e5457829003601f168201915b5050505050908060050160009054906101000a900473ffffffffffffffffffffffffffffffffffffffff16908060050160149054906101000a900460ff16905087565b600060018281548110610ef0577f4e487b7100000000000000000000000000000000000000000000000000000000600052603260045260246000fd5b9060005260206000209060060201905060018160050160146101000a81548160ff0219169083151502179055505050565b60028181548110610f3157600080fd5b9060005260206000209060060201600091509050806000018054610f549061188c565b80601f0160208091040260200160405190810160405280929190818152602001828054610f809061188c565b8015610fcd5780601f10610fa257610100808354040283529160200191610fcd565b820191906000526020600020905b815481529060010190602001808311610fb057829003601f168201915b505050505090806001015490806002018054610fe89061188c565b80601f01602080910402602001604051908101604052809291908181526020018280546110149061188c565b80156110615780601f1061103657610100808354040283529160200191611061565b820191906000526020600020905b81548152906001019060200180831161104457829003601f168201915b5050505050908060030180546110769061188c565b80601f01602080910402602001604051908101604052809291908181526020018280546110a29061188c565b80156110ef5780601f106110c4576101008083540402835291602001916110ef565b820191906000526020600020905b8154815290600101906020018083116110d257829003601f168201915b5050505050908060040180546111049061188c565b80601f01602080910402602001604051908101604052809291908181526020018280546111309061188c565b801561117d5780601f106111525761010080835404028352916020019161117d565b820191906000526020600020905b81548152906001019060200180831161116057829003601f168201915b5050505050908060050160009054906101000a900473ffffffffffffffffffffffffffffffffffffffff16908060050160149054906101000a900460ff16905087565b8280546111cc9061188c565b90600052602060002090601f0160209004810192826111ee5760008555611235565b82601f1061120757805160ff1916838001178555611235565b82800160010185558215611235579182015b82811115611234578251825591602001919060010190611219565b5b50905061124291906112d3565b5090565b8280546112529061188c565b90600052602060002090601f01602090048101928261127457600085556112c2565b82601f1061128557805485556112c2565b828001600101855582156112c257600052602060002091601f016020900482015b828111156112c15782548255916001019190600101906112a6565b5b5090506112cf91906112d3565b5090565b5b808211156112ec5760008160009055506001016112d4565b5090565b60006113036112fe8461176c565b61173b565b90508281526020810184848401111561131b57600080fd5b61132684828561184a565b509392505050565b600082601f83011261133f57600080fd5b813561134f8482602086016112f0565b91505092915050565b600081359050611367816119a5565b92915050565b600080600080600060a0868803121561138557600080fd5b600086013567ffffffffffffffff81111561139f57600080fd5b6113ab8882890161132e565b95505060206113bc88828901611358565b945050604086013567ffffffffffffffff8111156113d957600080fd5b6113e58882890161132e565b935050606086013567ffffffffffffffff81111561140257600080fd5b61140e8882890161132e565b925050608086013567ffffffffffffffff81111561142b57600080fd5b6114378882890161132e565b9150509295509295909350565b60006020828403121561145657600080fd5b600061146484828501611358565b91505092915050565b600061147983836115a4565b905092915050565b61148a81611802565b82525050565b61149981611802565b82525050565b60006114aa826117ac565b6114b481856117cf565b9350836020820285016114c68561179c565b8060005b8581101561150257848403895281516114e3858261146d565b94506114ee836117c2565b925060208a019950506001810190506114ca565b50829750879550505050505092915050565b61151d81611814565b82525050565b61152c81611814565b82525050565b600061153d826117b7565b61154781856117e0565b9350611557818560208601611859565b61156081611994565b840191505092915050565b6000611576826117b7565b61158081856117f1565b9350611590818560208601611859565b61159981611994565b840191505092915050565b600060e08301600083015184820360008601526115c18282611532565b91505060208301516115d66020860182611655565b50604083015184820360408601526115ee8282611532565b915050606083015184820360608601526116088282611532565b915050608083015184820360808601526116228282611532565b91505060a083015161163760a0860182611481565b5060c083015161164a60c0860182611514565b508091505092915050565b61165e81611840565b82525050565b61166d81611840565b82525050565b60006020820190506116886000830184611490565b92915050565b600060208201905081810360008301526116a8818461149f565b905092915050565b600060e08201905081810360008301526116ca818a61156b565b90506116d96020830189611664565b81810360408301526116eb818861156b565b905081810360608301526116ff818761156b565b90508181036080830152611713818661156b565b905061172260a0830185611490565b61172f60c0830184611523565b98975050505050505050565b6000604051905081810181811067ffffffffffffffff8211171561176257611761611965565b5b8060405250919050565b600067ffffffffffffffff82111561178757611786611965565b5b601f19601f8301169050602081019050919050565b6000819050602082019050919050565b600081519050919050565b600081519050919050565b6000602082019050919050565b600082825260208201905092915050565b600082825260208201905092915050565b600082825260208201905092915050565b600061180d82611820565b9050919050565b60008115159050919050565b600073ffffffffffffffffffffffffffffffffffffffff82169050919050565b6000819050919050565b82818337600083830152505050565b60005b8381101561187757808201518184015260208101905061185c565b83811115611886576000848401525b50505050565b600060028204905060018216806118a457607f821691505b602082108114156118b8576118b7611936565b5b50919050565b60006118c982611840565b91507fffffffffffffffffffffffffffffffffffffffffffffffffffffffffffffffff8214156118fc576118fb611907565b5b600182019050919050565b7f4e487b7100000000000000000000000000000000000000000000000000000000600052601160045260246000fd5b7f4e487b7100000000000000000000000000000000000000000000000000000000600052602260045260246000fd5b7f4e487b7100000000000000000000000000000000000000000000000000000000600052604160045260246000fd5b6000601f19601f8301169050919050565b6119ae81611840565b81146119b957600080fd5b5056fea2646970667358221220f69e3bb7be0ff52e8e95eeb85ad4ebe01f6a0393b7a86c00c30cc8f0d9ba2cc264736f6c63430008000033",
  "linkReferences": {},
  "deployedLinkReferences": {}
}